S01000006669726D776172652E73726563B7
S113000093C09AC099C098C097C096C095C094C038
S113001093C092C091C090C08FC08EC08DC08CC060
S11300208BC08AC089C06E616E00696E6600004034
S11300307A10F35A00A0724E18090010A5D4E800F3
S113004000E87648170000E40B54020000CA9A3B0B
S1130050000000E1F5050000809698000000404291
S11300600F000000A086010000001027000000001F
S1130070E803000000006400000000000A00000023
S113008000000100000000002C76D888DC674F08CF
S113009023DFC1DFAE59E1B1B796E5E3E453C63AD5
S11300A0E651997696E8E6C28426EB898C9B62ED4C
S11300B0407C6FFCEFBC9C9F40F2BAA56FA5F49006
S11300C0055A2AF75C936B6CF9676DC11BFCE0E47D
S11300D00D47FEF520E6B500D0ED902E03009435D3
S11300E077050080841E080000204E0A000000C826
S11300F00C333333330F986E12831141EF8D211477
S1130100893BE65516CFFEE6DB18D1844B381BF746
S11301107C1D901DA4BBE424203284725E228100E5
S1130120C9F124ECA1E53D2711241FBECFE5D4E09D
S1130130DEBFCDBF62D00EC863CFDC01CB01880F18
S1130140991FAA1FBB1F880F991FAA1FBB1F9C01C1
S1130150AD01220F331F441F551F220F331F441FAD
S1130160551F60E072E18AE790E0E2D5CA01B90167
S11301706150710981099109D0D10CD2272F3327FD
S113018020BD69B988E18AB986E880BD08955F9B7E
S1130190FECF8CB10895CF93DF93EC01F8DF899300
S11301A08D30E1F7DF91CF910895949A9598969ABE
S11301B097988EB582608EBD08959498959A969876
S11301C0979A8EB582608EBD0895949A9598969864
S11301D0979A8EB582608EBD08959498959A969A52
S11301E097988EB582608EBD089594989598969848
S11301F097988EB58D7F8EBD0895CF93DF93CDB73D
S1130200DEB72A970FB6F894DEBF0FBECDBF18BA7B
S11302108FE187BB82E085BB14BA88E082BB80EFA4
S113022081BB60E875E280E090E087DF82EA8FBD01
S113023088E18EBD1DBC1CBC83E087BD88EE86BDF5
S11302408EED93E09BBD8ABD99BD88BD12BC88E646
S113025085BD14BC8AEF83BD0F2EF4E64F2E512CBE
S1130260612C712CF02D0F2EF4E68F2E912CA12CE5
S1130270B12CF02D0F2EFEEDCF2EF3E0DF2EE12C6E
S1130280F12CF02D04E610E0312C212CCE01019646
S113029082DFCE010196BBD5AA2797FDA095BA2F80
S11302A0AC01BD01495E53406109710944365105F1
S11302B061057105B8F44C015D0128EE821A23E052
S11302C0920AA108B108DBBCCABCA5019401C7010C
S11302D0B6011FD5202F312F432D522D29D539BDDD
S11302E028BDD4CFAC01BD014D54544061097109FE
S11302F04436510561057105D8F40F2EF0EB4F2EED
S1130300F4E05F2E612C712CF02D481A590A6A0A08
S11303107B0AD9BCC8BCA3019201C701B601F9D4B8
S1130320202F312F432D522D03D53BBD2ABDAECFF7
S1130330AC01BD01455B544061097109403551056B
S11303406105710538F422E0829F800D11248051EB
S113035083BD9CCFAC01BD014E505640610971096B
S1130360423351056105710508F047C08C5D954025
S1130370A109B109880F991FAA1FBB1FAC01BD01B8
S1130380440F551F661F771F440F551F661F771FA5
S11303909A01AB01280F391F4A1F5B1F69017A01BB
S11303A06AB57BB588B599B58617970768F43BBDE0
S11303B02ABDC501B401ADD4202F312F432D522DB8
S11303C0B7D439BD28BD62CF68B579B58AB59BB5B8
S11303D08617970768F439BD28BDC301B20199D4C3
S11303E0202F312F432D522DA3D43BBD2ABD4ECFF8
S11303F03BBD2ABD39BD28BD49CF803D27E09207CA
S1130400A105B10511F4F1DE41CF813D27E092074A
S1130410A105B10511F4C9DE39CF823D27E0920769
S1130420A105B10511F4C9DE31CF833D27E0920760
S1130430A105B10511F4D1DE29CF843D27E092074F
S1130440A105B10511F4C1DE21CF883B2BE0920751
S1130450A105B10569F4DBBCCABCD9BCC8BC402E3B
S1130460512E632C722C802E912EA32CB22C0ECFE5
S1130470893B2BE09207A105B105C9F48EED93E009
S11304809BBD8ABD99BD88BD402E512E632C722C14
S1130490802E912EA32CB22C0F2EFEEDCF2EF02DFC
S11304A00F2EF3E0DF2EF02DE12CF12CEFCE803A6D
S11304B02FE09207A105B10511F4C098E7CE813A67
S11304C02FE09207A105B10511F4C09ADFCE883858
S11304D023E19207A105B10511F4C498D7CE893858
S11304E023E19207A105B10511F4C49ACFCE803758
S11304F027E19207A105B10529F485B58D7F85BD56
S1130500BB98C4CE81379741A105B10509F0BECE91
S113051085B5826085BDBB9AB9CEE89409C097FBC6
S11305203EF490958095709561957F4F8F4F9F4FC6
S11305309923A9F0F92F96E9BB279395F69587950A
S113054077956795B795F111F8CFFAF4BB0F11F4CD
S113055060FF1BC06F5F7F4F8F4F9F4F16C0882374
S113056011F096E911C0772321F09EE8872F762FAA
S113057005C0662371F096E8862F70E060E02AF0EB
S11305809A95660F771F881FDAF7880F96958795D7
S113059097F9089541D0A8F19E57A8F1985160F0B9
S11305A039F1983070F5092E9927660F771F881F47
S11305B0991F0A94D1F71CC0BB27993F4CF4B11181
S11305C0B1E0B62B672F782F8827985FB1F708C062
S11305D0869577956795B79508F4B1609395C1F7BB
S11305E0BB0F30F411F460FF03C06F5F7F4F8F4F78
S11305F03EF490958095709561957F4F8F4F9F4FF6
S11306000895689424C022C057FD9058440F551F84
S113061059F05F3F71F04795880F97FB991F61F080
S11306209F3F79F087950895121613061406551FF7
S1130630F2CF4695F1DF08C0161617061806991F63
S1130640F1CF86957105610508940895E894BB2758
S113065066277727CB0197F90895A3E1B0E0E2E399
S1130660F3E092C37C011B016A01FC01178216822C
S1130670838181FF49C3BE016F5F7F4F4B01F70147
S11306809381F10193FD859193FF81911F0188234B
S113069009F436C3853239F493FD859193FF819132
S11306A01F01853231F4B70190E0C4D456016501CD
S11306B0E6CF10E0512C20E02032A0F48B3269F018
S11306C030F4803259F0833269F420612CC08D32C9
S11306D039F0803339F4216026C02260246023C0BD
S11306E0286021C027FD27C030ED380F3A3078F458
S11306F026FF06C0FAE01F9F300D1124132F13C0EC
S11307006AE0569E300D1124532E20620CC08E32A6
S113071021F426FDF5C2206406C08C3611F420684D
S113072002C0883641F4F10193FD859193FF8191D4
S11307301F018111C1CF9BEB980F933018F42061F6
S1130740805E06C09BE9980F933008F09AC12F7E13
S113075026FF16E02F73722E853621F4F22FF064F3
S11307607F2E08C0863621F4622F6068762E02C080
S11307701111115077FE07C01C3348F444244394EC
S1130780410E27E00BC0183030F4212F06C027E0BB
S11307904CE3442E03C027E017E0412C560174E0DB
S11307A0A70EB11CF6016081718182819381042DB1
S11307B0A4014AD36C01098100FF02C003FF06C0F3
S11307C071FC07C072FC08C0612C08C03DE2632EB6
S11307D005C02BE2622E02C090E2692E802F8C703D
S11307E081F1662011F084E001C083E0851510F0EA
S11307F0512C0AC0581A73FC07C0B70180E290E07C
S113080019D45A94D1F7F4CF662021F0B701862D7C
S113081090E010D403FD03C00AE210E002C006E237
S113082010E0F72DF0717F2EF8018491882309F4EC
S11308305EC271108052B70190E0FCD30F5F1F4F6E
S1130840F3CF77FE0FC04C0C04FF04C08A818133C0
S113085009F44A94141474F5F8E0F41578F588E072
S1130860482E2CC076FC2AC0812F90E08C159D0563
S11308709CF06CEFC6166FEFD60674F0772D706897
S1130880772E0AC0E2E0F0E0EC0FFD1FE10FF11D4E
S11308908081803319F411501111F4CF77FE0EC00A
S11308A044244394410E812F90E0C816D9062CF4B9
S11308B01C1904C04424439401C010E077FE07C00F
S11308C01C141D043CF496012F5F3F4F05C025E026
S11308D030E002C021E030E0662011F02F5F3F4F8E
S11308E0112331F0412F50E04F5F5F4F240F351F2C
S11308F0452D50E02417350714F4521A01C0512C29
S1130900872D897041F4552031F0B70180E290E0E1
S113091091D35A94F8CF662021F0B701862D90E048
S113092089D373FC08C0552031F0B70180E390E00F
S113093081D35A94F8CF77FE5DC09C2D8D2DD7FEC0
S113094002C090E080E0692E782E40E050E0C601BD
S1130950841991099D878C87960126193709280DDA
S1130960391D812F90E0EE27FF27E81BF90BFF8745
S1130970EE87FFEF6F167F0661F4B7018EE290E019
S11309802B8B3A8B488B598B55D3598948893A8993
S11309902B89C614D70454F06C857D8566157705BC
S11309A02CF4F901E40FF51F818101C080E371E0AB
S11309B0671A71084F5F5F4FEE85FF856E167F06DD
S11309C064F0B70190E02B8B3A8B488B598B32D370
S11309D02B893A8948895989CCCF6C147D0439F420
S11309E09A81963318F4953311F404FF81E3B70127
S11309F090E045C08A81813309F00F7EB70190E011
S1130A0019D3111105C074FE16C085E490E015C019
S1130A10B7018EE290E00ED382E066246394680E00
S1130A20F401E80FF11D8081B70190E003D3115068
S1130A3051F3862DF2CF85E690E0B701FBD2D7FCC7
S1130A4005C0C114D10439F404FF05C0D194C19484
S1130A50D1088DE201C08BE2B70190E0EBD280E3D4
S1130A606AE0C616D1042CF08F5FFAE0CF1AD108E1
S1130A70F7CFB70190E0DED2B701C601C096DAD253
S1130A8036C1833631F0833779F0833509F054C0A9
S1130A9020C0560172E0A70EB11CF6018081898343
S1130AA001E010E0640113C05601F2E0AF0EB11C86
S1130AB0F601C080D18026FF03C0612F70E002C020
S1130AC06FEF7FEFC6012B8BA2D28C012B892F777E
S1130AD014C05601F2E0AF0EB11CF601C080D18003
S1130AE026FF03C0612F70E002C06FEF7FEFC601E5
S1130AF02B8B82D28C012B892068722E23FD18C087
S1130B00852D90E00817190798F4B70180E290E06A
S1130B1091D25A94F5CFF60177FC859177FE8191B5
S1130B206F01B70190E086D251105A940150110917
S1130B300115110581F7DBC0843611F0893649F5BA
S1130B40560127FF09C0F4E0AF0EB11CF601608125
S1130B507181828193810AC0F2E0AF0EB11CF6016B
S1130B6060817181882777FD8095982F022F0F76F9
S1130B7097FF08C090958095709561957F4F8F4F32
S1130B809F4F00682AE030E0A40186D2C82EC8181E
S1130B903DC0022F853721F40F7E2AE030E01DC0CE
S1130BA0097F8F3691F018F4883559F0A9C0803741
S1130BB019F0883711F0A4C0006104FF09C0046073
S1130BC007C024FF08C0066006C028E030E005C066
S1130BD020E130E002C020E132E0560107FF09C005
S1130BE0F4E0AF0EB11CF6016081718182819381C2
S1130BF008C0F2E0AF0EB11CF6016081718180E0A3
S1130C0090E0A40149D2C82EC8180F7706FF0BC084
S1130C10202F2E7FC11650F404FF0AC002FD08C025
S1130C20202F2E7E05C0DC2C202F03C0DC2C01C01D
S1130C30D12E24FF0DC0FE01EC0DF11D8081803307
S1130C4011F4297E09C022FF06C0D394D39404C0B2
S1130C50822F867809F0D39423FD12C020FF06C0AA
S1130C601C2DD51418F4150D1D19D52CD51460F4AC
S1130C70B70180E290E02B8BDDD1D3942B89F6CFA2
S1130C80D51410F45D1801C0512C24FF11C0B70114
S1130C9080E390E02B8BCED12B8922FF16C021FF5D
S1130CA003C088E590E002C088E790E0B7010CC07B
S1130CB0822F867851F021FD02C080E201C08BE2D0
S1130CC027FD8DE2B70190E0B5D1C11630F4B7012C
S1130CD080E390E0AFD11150F8CFCA94F401EC0D49
S1130CE0F11D8081B70190E0A5D1C110F6CF552048
S1130CF009F4DDCCB70180E290E09CD15A94F7CF9F
S1130D00F7018681978102C08FEF9FEF6396E2E13E
S1130D1057C0DB018F939F932DD0BF91AF91A29FBA
S1130D20800D911DA39F900DB29F900D11240895E5
S1130D30A1E21A2EAA1BBB1BFD010DC0AA1FBB1FDB
S1130D40EE1FFF1FA217B307E407F50720F0A21B4D
S1130D50B30BE40BF50B661F771F881F991F1A94BA
S1130D6069F760957095809590959B01AC01BD01E4
S1130D70CF01089540D0A59F900DB49F900DA49FDE
S1130D80800D911D112408952F923F924F925F92EE
S1130D906F927F928F929F92AF92BF92CF92DF9287
S1130DA0EF92FF920F931F93CF93DF93CDB7DEB7EC
S1130DB0CA1BDB0B0FB6F894DEBF0FBECDBF099480
S1130DC02A88398848885F846E847D848C849B84D7
S1130DD0AA84B984C884DF80EE80FD800C811B81E5
S1130DE0AA81B981CE0FD11D0FB6F894DEBF0FBE14
S1130DF0CDBFED010895A29FB001B39FC001A39F91
S1130E0001D0B29F700D811D1124911D0895FC0124
S1130E1088279927E89421912032E9F3293010F0AA
S1130E202E30C8F32B3239F02D3231F4689403C0DC
S1130E30F9D0820F911D219120532A30C8F31EF45A
S1130E40909581959F4F0895283008F027E0332727
S1130E50DA01990F311D87FD9160009661057105D6
S1130E6039F432602E5F3D9330E32A95E1F708951B
S1130E709F3F30F080387105610509F03C5F3C5FAD
S1130E803D93913008F08068911DDF93CF931F93B9
S1130E900F93FF92EF92192F987F9695E92F9695CD
S1130EA09695E90FFF27E857FF4F99273327EE243C
S1130EB0FF24A701E70105900894079428F4360F4E
S1130EC0E71EF81E491F511D660F771F881F991FC3
S1130ED00694A1F70590079428F4E70EF81E491F1D
S1130EE0561FC11D770F881F991F661F0694A1F70F
S1130EF00590079428F4F80E491F561FC71FD11DEB
S1130F00880F991F661F771F0694A1F70590079411
S1130F1020F4490F561FC71FD81F990F661F771F4C
S1130F20881F0694A9F784911095177041F0D695FF
S1130F30C79557954795F794E7941A95C1F7EEE24C
S1130F40F0E068941590159135916591959105900F
S1130F507FE27395E118F10A430B560BC90BD009D4
S1130F60C0F7E10CF11E431F561FC91FD01D7EF4AC
S1130F70703311F48A95E6CFE894015030F0080FED
S1130F800AF40027021708F4202F2395022F7A333E
S1130F9028F079E37D932A95E9F710C07D932A958B
S1130FA089F6069497956795379517951794E118E0
S1130FB0F10A430B560BC90BD00998F023957E9187
S1130FC073957A3308F070E37C932013B8F77E911D
S1130FD070617D9330F0839571E37D9370E32A957E
S1130FE0E1F71124EF90FF900F911F91CF91DF91C2
S1130FF0992787FD90950895FC01059061507040F4
S11310000110D8F7809590958E0F9F1F0895FC01CD
S11310106150704001900110D8F7809590958E0F23
S11310209F1F08957AE0979F902D879F802D910DA3
S1131030112408950F931F93CF93DF93182F092F33
S1131040EB018B8181FD03C08FEF9FEF20C082FFF6
S113105010C04E815F812C813D81421753077CF47F
S1131060E881F9819F012F5F3F4F398328831083E3
S113107006C0E885F985812F0995892B29F72E81EA
S11310803F812F5F3F4F3F832E83812F902FDF912E
S1131090CF911F910F910895FA01AA27283051F199
S11310A0203181F1E8946F936E7F6E5F7F4F8F4F95
S11310B09F4FAF4FB1E03ED0B4E03CD0670F781FF4
S11310C0891F9A1FA11D680F791F8A1F911DA11DD9
S11310D06A0F711D811D911DA11D20D009F4689412
S11310E03F912AE0269F11243019305D3193DEF6BA
S11310F0CF010895462F4770405D4193B3E00FD070
S1131100C9F7F6CF462F4F70405D4A3318F0495D5A
S113111031FD4052419302D0A9F7EACFB4E0A6953D
S11311209795879577956795BA95C9F7009761055F
S1131130710508959B01AC010A2E069457954795B5
S113114037952795BA95C9F7620F731F841F951FAA
S10B1150A01D0895F894FFCFDF
S9030000FC
